S0270000417175656365646F725F496E74656C6967656E74655F436F6469676F5F47382E73726563FB
S11300000C9470000C948D000C948D000C948D0055
S11300100C948D000C948D000C948D000C948D0028
S11300200C948D000C948D000C948D000C948D0018
S11300300C948D000C948D000C948D000C948D0008
S11300400C948E040C948D000C948D000C948D00F3
S11300500C948D000C948D000C948D000C948D00E8
S11300600C948D000C948D00AF02BA02C502D0022C
S1130070DB02E602F102FC02070312032A03350342
S113008040034B03560361036C03770382038D0320
S1130090A503B003BB03C603D103DC03E703F203E8
S11300A0FD03080420042B04360441044C045704C3
S11300B062046D047804830407634236B79BD8A7AF
S11300C01A39685618AEBAAB558C1D3CB7CC576379
S11300D0BD6DEDFD753EF6177231BF000000803F27
S11300E011241FBECFEFD8E0DEBFCDBF11E0A0E0EA
S11300F0B1E0EEEFF0E102C005900D92AC30B10733
S1130100D9F721E0ACE0B1E001C01D92AF32B207F3
S1130110E1F70E9488010C947D080C940000539828
S11301203E9884B1806C84B98AB184648AB984B1FC
S1130130876084B987B18C6387B9579A089590937F
S1130140C5008093C40088E18093C1008EE0809351
S1130150C2000895E0ECF0E0908195FFFDCF80931C
S1130160C6000895CF93DF93EC018881882331F092
S113017021960E94AA0089918111FBCFDF91CF9132
S113018008954C9B02C04B999EC081E0809321014D
S11301904C9927C080910E0190910F010196909384
S11301A00F0180930E0118161906A4F580910C0115
S11301B090910D01019771F410920D0110920C01B0
S11301C080911C018F5F8A3018F480931C0102C057
S11301D010921C0110920F0110920E014B9B28C02B
S11301E040C08091100190911101019690931101EA
S11301F080931001181619066CF481E090E0909336
S11302000D0180930C0110921101109210014B9B6F
S113021003C033C04B9925C080910E0190910F010A
S1130220019690930F0180930E01181619067CF520
S113023080910C0190910D01019771F410920D01C0
S113024010920C0180911D018F5F8A3018F4809305
S11302501D0102C010921D0110920F0110920E0197
S113026016C0809110019091110101969093110193
S1130270809310011816190654F481E090E09093CD
S11302800D0180930C0110921101109210014B99F1
S11302901AC04C9918C01092210180911C0190E061
S11302A09C01220F331F880F991F880F991F880FF5
S11302B0991F820F931F20911D01820F911D90930E
S11302C0170180931601089587E880937A001092AD
S11302D07B0081E480937C000895EAE7F0E080816C
S11302E080648083808186FDFDCF80917800909129
S11302F079000895559A84B5836284BDEEE6F0E0F2
S113030080818160808318BC85B5816085BD089536
S1130310CF93DF9300D000D000D0CDB7DEB70E94DA
S11303208F0083E390E00E949F000E947A010E9464
S1130330640178940F2EFAE02F2E312CF02D0E94B8
S1130340C1000E946D0190931B0180931A0180905B
S1130350040190900501A0900601B0900701BC0132
S113036080E090E00E944106A50194010E9490075C
S113037020E030EC4FE754E40E9466056B017C01F9
S113038060932B0170932C0180932D0190932E0187
S1130390209108013091090140910A0150910B010B
S11303A00E9490072B013C01A7019601C501B401ED
S11303B00E94F4049B01AC01C301B2010E946605D2
S11303C02B013C016093270170932801809329013C
S11303D090932A018091000190910101A091020162
S11303E0B091030189839A83AB83BC830091180184
S11303F0109119011E821D822D813E81B901330F96
S1130400880B990B0E9443066B017C019B01AC0194
S113041060E070E080E89FE30E9466052DEC3CEC10
S11304204CEC5DE30E9490079B01AC0160E070E03E
S1130430CB010E94F40420E030E146E455E40E943C
S113044090070E94E00529813A814B815C810E94DA
S113045090074B015C019B01AC01C301B2010E94F6
S1130460610518166CF0109319010093180180921D
S1130470120190921301A0921401B092150120C0B0
S11304802DEC3CEC4CEC5DE3C701B6010E949007F7
S11304900E9412068B018D819E8101969E838D831D
S11304A08835924009F0A8CF1093190100931801E0
S11304B08092120190921301A0921401B09215013E
S11304C04AE062E271E080911601909117010E9466
S11304D0480882E291E00E94B2008AE00E94AA00E9
S11304E0E0911801F09119019F01ADECBCEC0E9460
S11304F025089695879596958795969587958093E3
S11305001F01CF01B1010E940B088093200180914B
S11305101601909117018E179F0780F05A985E9AE2
S1130520BFEFB8BD209118013091190180911601D7
S1130530909117012817390708F401CF5E985A9A49
S113054018BCFDCEE0911D018E2F90E08A309105FC
S113055008F072C0FC01EC5CFF4F0C941F082F9A4A
S11305602E98459A449A439A429A2A98299A289A04
S11305705F9A08952F9A2E984598449A439A4298E0
S11305802A98299A28985F9808952F9A2E98459A20
S1130590449A4398429A2A9A299A289A5F980895E5
S11305A02F9A2E98459A449A439A429A2A9A299ABB
S11305B028985F9808952F9A2E984598449A439ABC
S11305C042982A9A299A28985F9A08952F9A2E98E1
S11305D0459A4498439A429A2A9A299A28985F9A63
S11305E008952F9A2E98459A4498439A429A2A9AA3
S11305F0299A289A5F9A08952F9A2E98459A449A90
S1130600439A42982A98299A28985F9808952F9A8D
S11306102E98459A449A439A429A2A9A299A289A51
S11306205F9A08952F9A2E98459A449A439A42982D
S11306302A9A299A28985F9A0895E09120018E2F8A
S113064090E08A30910508F072C0FC01E25CFF4F33
S11306500C941F082F9A2E98459A449A439A429ACA
S11306602A98299A289A5F9A08952F9A2E9845983D
S1130670449A439A42982A98299A28985F98089508
S11306802F9A2E98459A449A4398429A2A9A299ADC
S1130690289A5F9808952F9A2E98459A449A439AD7
S11306A0429A2A9A299A28985F9808952F9A2E9800
S11306B04598449A439A42982A9A299A28985F9A84
S11306C008952F9A2E98459A4498439A429A2A9AC2
S11306D0299A28985F9A08952F9A2E98459A4498B3
S11306E0439A429A2A9A299A289A5F9A08952F9AA5
S11306F02E98459A449A439A42982A98299A289877
S11307005F9808952F9A2E98459A449A439A429A4C
S11307102A9A299A289A5F9A08952F9A2E98459A88
S1130720449A439A42982A9A299A28985F9A089553
S1130730E0911C018E2F90E08A30910508F072C080
S1130740FC01E85BFF4F0C941F082E9A2F98459AE2
S1130750449A439A429A2A98299A289A5F9A089521
S11307602E9A2F984598449A439A42982A98299AFF
S113077028985F9808952E9A2F98459A449A4398FA
S1130780429A2A9A299A289A5F9808952F982E9A1D
S1130790459A449A439A429A2A9A299A28985F98A1
S11307A008952E9A2F984598449A439A42982A9AE3
S11307B0299A28985F9A08952E9A2F98459A4498D2
S11307C0439A429A2A9A299A28985F9A08952E9AC7
S11307D02F98459A4498439A429A2A9A299A289A91
S11307E05F9A08952E9A2F98459A449A439A42986C
S11307F02A98299A28985F9808952E9A2F98459AAE
S1130800449A439A429A2A9A299A289A5F9A08956E
S11308102E9A2F98459A449A439A42982A9A299A4A
S113082028985F9A0895E0911F018E2F90E08A30F6
S1130830910508F072C0FC01EE5AFF4F0C941F089A
S11308402E9A2F98459A449A439A429A2A98299A1A
S1130850289A5F9A08952E9A2F984598449A439A15
S113086042982A98299A28985F9808952E9A2F9842
S1130870459A449A4398429A2A9A299A289A5F98C0
S113088008952F982E9A459A449A439A429A2A9AFE
S1130890299A28985F9808952E9A2F984598449AF3
S11308A0439A42982A9A299A28985F9A08952E9AE8
S11308B02F98459A4498439A429A2A9A299A2898B2
S11308C05F9A08952E9A2F98459A4498439A429A8B
S11308D02A9A299A289A5F9A08952E9A2F98459AC7
S11308E0449A439A42982A98299A28985F98089596
S11308F02E9A2F98459A449A439A429A2A9A299A68
S1130900289A5F9A08952E9A2F98459A449A439A62
S113091042982A9A299A28985F9A08951F920F92CA
S11309200FB60F9211242F933F934F935F936F93BE
S11309307F938F939F93AF93BF93EF93FF93809194
S11309401E018130A9F028F0823011F1833079F151
S11309503AC080912101882319F00E94A20202C0AA
S11309600E941D0380911E018F5F80931E012BC086
S11309702F982E9845984498439842982A982998F5
S113098028985F9880911E018F5F80931E011BC081
S113099080912101882319F00E94980302C00E94CB
S11309A0130480911E018F5F80931E010CC02F9849
S11309B02E9845984498439842982A9829982898BC
S11309C05F9810921E01FF91EF91BF91AF919F919B
S11309D08F917F916F915F914F913F912F910F90E4
S11309E00FBE0F901F9018955058BB27AA270E943E
S11309F00C050C94E0060E94D20638F00E94D90639
S1130A0020F039F49F3F19F426F40C94A8060EF450
S1130A10E095E7FB0C94A206E92F0E94F10658F337
S1130A20BA17620773078407950720F079F4A6F5CF
S1130A300C9413070EF4E0950B2EBA2FA02D0B0186
S1130A40B90190010C01CA01A0011124FF27591B0F
S1130A5099F0593F50F4503E68F11A16F040A22F15
S1130A60232F342F4427585FF3CF46953795279586
S1130A70A795F0405395C9F77EF41F16BA0B620B85
S1130A80730B840BBAF09150A1F0FF0FBB1F661FCC
S1130A90771F881FC2F70EC0BA0F621F731F841F0F
S1130AA048F4879577956795B795F7959E3F08F035
S1130AB0B0CF9395880F08F09927EE0F97958795F7
S1130AC008950E947E0608F481E008950E947A0544
S1130AD00C94E0060E94D90658F00E94D20640F019
S1130AE029F45F3F29F00C94A20651110C941407C9
S1130AF00C94A8060E94F10668F39923B1F35523D8
S1130B0091F3951B550BBB27AA276217730784071C
S1130B1038F09F5F5F4F220F331F441FAA1FA9F3B2
S1130B2035D00E2E3AF0E0E832D091505040E695A0
S1130B30001CCAF72BD0FE2F29D0660F771F881F01
S1130B40BB1F261737074807AB07B0E809F0BB0BF4
S1130B50802DBF01FF2793585F4F3AF09E3F510508
S1130B6078F00C94A2060C9414075F3FE4F3983ECB
S1130B70D4F3869577956795B795F7959F5FC9F7F1
S1130B80880F911D9695879597F90895E1E0660F72
S1130B90771F881FBB1F621773078407BA0720F0EB
S1130BA0621B730B840BBA0BEE1F88F7E095089554
S1130BB029F416F00C94A2060C9413070C94A806BE
S1130BC00E94F906A8F39638A0F707F80F92E89464
S1130BD02BE33AEA48EB5FE70E94A6070F920F92D5
S1130BE00F924DB75EB70F920E945C07E8EBF0E0FE
S1130BF00E94AB064F915F91EF91FF91E595EE1F37
S1130C00FF1F49F0FE57E0684427EE0F441FFA9592
S1130C10E1F74195550B0E9426070F9007FE0C94AF
S1130C201A0708950E94F90688F09F5798F0B92F83
S1130C309927B751B0F0E1F0660F771F881F991F0D
S1130C401AF0BA95C9F714C0B13091F00E94130795
S1130C50B1E008950C941307672F782F8827B85FA5
S1130C6039F0B93FCCF3869577956795B395D9F765
S1130C703EF490958095709561957F4F8F4F9F4F6F
S1130C800895E89409C097FB3EF49095809570957B
S1130C9061957F4F8F4F9F4F9923A9F0F92F96E9C4
S1130CA0BB279395F695879577956795B795F11139
S1130CB0F8CFFAF4BB0F11F460FF1BC06F5F7F4FD6
S1130CC08F4F9F4F16C0882311F096E911C07723E8
S1130CD021F09EE8872F762F05C0662371F096E8F1
S1130CE0862F70E060E02AF09A95660F771F881FC0
S1130CF0DAF7880F9695879597F90895990F000864
S1130D00550FAA0BE0E8FEEF16161706E807F907D9
S1130D10C0F012161306E407F50798F0621B730B74
S1130D20840B950B39F40A2661F0232B242B252BF5
S1130D3021F408950A2609F4A140A6958FEF811D98
S1130D40811D089597F99F6780E870E060E0089539
S1130D509FEF80EC0895DF93CF931F930F93FF923F
S1130D60EF92DF927B018C01689406C0DA2EEF01CA
S1130D700E94A307FE01E894A59125913591459120
S1130D805591A6F3EF010E940C05FE019701A801FD
S1130D90DA9469F7DF90EF90FF900F911F91CF9154
S1130DA0DF91089500240A941616170618060906FA
S1130DB0089500240A9412161306140605060895CD
S1130DC0092E0394000C11F4882352F0BB0F40F455
S1130DD0BF2B11F460FF04C06F5F7F4F8F4F9F4F95
S1130DE0089557FD9058440F551F59F05F3F71F017
S1130DF04795880F97FB991F61F09F3F79F087957E
S1130E000895121613061406551FF2CF4695F1DF06
S1130E1008C0161617061806991FF1CF8695710596
S1130E20610508940895E894BB2766277727CB01CA
S1130E3097F908959B01AC0160E070E080E89FE3BE
S1130E400C9466050C94A2060C94FD070E94F90606
S1130E50D8F39923C9F3940F511DA3F39150504033
S1130E6094F059F0882332F0660F771F881F915051
S1130E705040C1F79E3F51052CF7880F911D969560
S1130E80879597F908955F3FACF0983E9CF0BB2797
S1130E90869577956795B79508F4B1609395C1F7F2
S1130EA0BB0F58F711F460FFE8CF6F5F7F4F8F4F90
S1130EB09F4FE3CF0C941407FA01DC01AA0FBB1F68
S1130EC09B01AC01BF5728F42227332744275078CD
S1130ED020C0B75190F4AB2F002446953795279541
S1130EE0011CA395D2F3002071F0220F331F441F7D
S1130EF0B395DAF30ED00C94F40461307105A0E8D4
S1130F008A07B94630F49B01AC0166277727882706
S1130F109078309621F0208331834283538308955F
S1130F200E94A3070C94E0060E94D20638F00E94A7
S1130F30D90620F0952311F00C94A2060C94A8066F
S1130F4011240C9414070E94F10670F3959FC1F3C9
S1130F50950F50E0551F629FF001729FBB27F00D63
S1130F60B11D639FAA27F00DB11DAA1F649F6627B8
S1130F70B00DA11D661F829F2227B00DA11D621F07
S1130F80739FB00DA11D621F839FA00D611D221FC1
S1130F90749F3327A00D611D231F849F600D211DA5
S1130FA0822F762F6A2F11249F5750409AF0F1F028
S1130FB088234AF0EE0FFF1FBB1F661F771F881F91
S1130FC091505040A9F79E3F510580F00C94A20621
S1130FD00C9414075F3FE4F3983ED4F38695779519
S1130FE06795B795F795E7959F5FC1F7FE2B880F37
S1130FF0911D9695879597F908959F3F31F09150EB
S113100020F4879577956795B795880F911D9695E8
S1131010879597F9089597FB072E16F4009407D047
S113102077FD09D00E94340807FC05D03EF4909562
S113103081959F4F0895709561957F4F0895EE0FA8
S1131040FF1F0590F491E02D0994A29FB001B39F76
S1131050C001A39F700D811D1124911DB29F700DBD
S1131060811D1124911D0895AA1BBB1B51E107C0CA
S1131070AA1FBB1FA617B70710F0A61BB70B881F24
S1131080991F5A95A9F780959095BC01CD010895B3
S1131090BB274A3031F4992322F4BDE2909581951F
S11310A09F4F0C945408BB27FB015527AA27880F90
S11310B0991FAA1FA41710F0A41B83955051B9F7C8
S11310C0A05DAA3308F0A95DA193009779F7B11147
S11310D0B1931192CB010C946D08DC01FC01672FD4
S11310E071917723E1F7329704C07C916D937083FB
S11110F06291AE17BF07C8F30895F894FFCFBE
S10F10FE331395430000A0400000A442FE
S9030000FC
